:100000000C9434000C9451000C9451000C94510049
:100010000C9451000C9451000C9451000C9451001C
:100020000C9451000C9451000C9451000C9451000C
:100030000C9451000C9451000C9451000C945100FC
:100040000C9451000C9451000C9451000C945100EC
:100050000C9451000C9451000C9451000C945100DC
:100060000C9451000C94510011241FBECFEFD8E026
:10007000DEBFCDBF11E0A0E0B1E0E8EEF0E002C0ED
:1000800005900D92A030B107D9F711E0A0E0B1E0E2
:1000900001C01D92A030B107E1F70E9453000C94FB
:1000A00072000C940000259A8FE79AE1A6E0815037
:1000B0009040A040E1F700C000001D9A8FE79AE150
:1000C000A6E081509040A040E1F700C000001D9ADA
:1000D0008FEF93EDA0E381509040A040E1F700C086
:0800E0000000E2CFF894FFCF0D
:00000001FF
